{
  "address": "0x5FbDB2315678afecb367f032d93F642f64180aa3",
  "abi": [
    {
      "inputs": [],
      "stateMutability": "nonpayable",
      "type": "constructor"
    },
    {
      "inputs": [],
      "name": "BuyCoffee__NotEnoughMoneyTBuyCoffee",
      "type": "error"
    },
    {
      "inputs": [],
      "name": "BuyCoffee__NotOwner",
      "type": "error"
    },
    {
      "anonymous": false,
      "inputs": [
        {
          "indexed": true,
          "internalType": "address",
          "name": "from",
          "type": "address"
        },
        {
          "indexed": false,
          "internalType": "string",
          "name": "name",
          "type": "string"
        },
        {
          "indexed": false,
          "internalType": "string",
          "name": "message",
          "type": "string"
        },
        {
          "indexed": false,
          "internalType": "uint256",
          "name": "amount",
          "type": "uint256"
        },
        {
          "indexed": false,
          "internalType": "uint256",
          "name": "timestamp",
          "type": "uint256"
        }
      ],
      "name": "CoffeeBought",
      "type": "event"
    },
    {
      "inputs": [
        {
          "internalType": "string",
          "name": "_name",
          "type": "string"
        },
        {
          "internalType": "string",
          "name": "_message",
          "type": "string"
        }
      ],
      "name": "buyCoffee",
      "outputs": [],
      "stateMutability": "payable",
      "type": "function"
    },
    {
      "inputs": [
        {
          "internalType": "uint256",
          "name": "",
          "type": "uint256"
        }
      ],
      "name": "s_memos",
      "outputs": [
        {
          "internalType": "address",
          "name": "from",
          "type": "address"
        },
        {
          "internalType": "string",
          "name": "name",
          "type": "string"
        },
        {
          "internalType": "string",
          "name": "message",
          "type": "string"
        },
        {
          "internalType": "uint256",
          "name": "amount",
          "type": "uint256"
        },
        {
          "internalType": "uint256",
          "name": "timestamp",
          "type": "uint256"
        }
      ],
      "stateMutability": "view",
      "type": "function"
    },
    {
      "inputs": [],
      "name": "withdraw",
      "outputs": [],
      "stateMutability": "nonpayable",
      "type": "function"
    }
  ],
  "transactionHash": "0x1c4a2b75d13308627be74eb755979898374f1160ff592d56bb2d4a78faf4dc0b",
  "args": [],
  "numDeployments": 1,
  "solcInputHash": "d76cf99efc1ffa2faf516f449521a3b7",
  "bytecode": "0x60a060405234801561001057600080fd5b503373ffffffffffffffffffffffffffffffffffffffff1660808173ffffffffffffffffffffffffffffffffffffffff1681525050608051610bd66100676000396000818161023201526102b90152610bd66000f3fe6080604052600436106100345760003560e01c8063204206e1146100395780633ccfd60b14610055578063eed24a5b1461006c575b600080fd5b610053600480360381019061004e919061061e565b6100ad565b005b34801561006157600080fd5b5061006a610230565b005b34801561007857600080fd5b50610093600480360381019061008e91906106cc565b61034e565b6040516100a49594939291906107c8565b60405180910390f35b600034116100e7576040517ff4ff915b00000000000000000000000000000000000000000000000000000000815260040160405180910390fd5b60006040518060a001604052803373ffffffffffffffffffffffffffffffffffffffff16815260200184815260200183815260200134815260200142815250908060018154018082558091505060019003906000526020600020906005020160009091909190915060008201518160000160006101000a81548173ffffffffffffffffffffffffffffffffffffffff021916908373ffffffffffffffffffffffffffffffffffffffff16021790555060208201518160010190816101ab9190610a35565b5060408201518160020190816101c19190610a35565b50606082015181600301556080820151816004015550503373ffffffffffffffffffffffffffffffffffffffff167f53e5d749474757cbfb99d9813c8e477d97b4b225dc8f02a50de6fce0d799cbb6838334426040516102249493929190610b07565b60405180910390a25050565b7f000000000000000000000000000000000000000000000000000000000000000073ffffffffffffffffffffffffffffffffffffffff163373ffffffffffffffffffffffffffffffffffffffff16036102b5576040517f63f58b5e00000000000000000000000000000000000000000000000000000000815260040160405180910390fd5b60007f000000000000000000000000000000000000000000000000000000000000000073ffffffffffffffffffffffffffffffffffffffff16476040516102fb90610b8b565b60006040518083038185875af1925050503d8060008114610338576040519150601f19603f3d011682016040523d82523d6000602084013e61033d565b606091505b505090508061034b57600080fd5b50565b6000818154811061035e57600080fd5b90600052602060002090600502016000915090508060000160009054906101000a900473ffffffffffffffffffffffffffffffffffffffff16908060010180546103a790610858565b80601f01602080910402602001604051908101604052809291908181526020018280546103d390610858565b80156104205780601f106103f557610100808354040283529160200191610420565b820191906000526020600020905b81548152906001019060200180831161040357829003601f168201915b50505050509080600201805461043590610858565b80601f016020809104026020016040519081016040528092919081815260200182805461046190610858565b80156104ae5780601f10610483576101008083540402835291602001916104ae565b820191906000526020600020905b81548152906001019060200180831161049157829003601f168201915b5050505050908060030154908060040154905085565b6000604051905090565b600080fd5b600080fd5b600080fd5b600080fd5b6000601f19601f8301169050919050565b7f4e487b7100000000000000000000000000000000000000000000000000000000600052604160045260246000fd5b61052b826104e2565b810181811067ffffffffffffffff8211171561054a576105496104f3565b5b80604052505050565b600061055d6104c4565b90506105698282610522565b919050565b600067ffffffffffffffff821115610589576105886104f3565b5b610592826104e2565b9050602081019050919050565b82818337600083830152505050565b60006105c16105bc8461056e565b610553565b9050828152602081018484840111156105dd576105dc6104dd565b5b6105e884828561059f565b509392505050565b600082601f830112610605576106046104d8565b5b81356106158482602086016105ae565b91505092915050565b60008060408385031215610635576106346104ce565b5b600083013567ffffffffffffffff811115610653576106526104d3565b5b61065f858286016105f0565b925050602083013567ffffffffffffffff8111156106805761067f6104d3565b5b61068c858286016105f0565b9150509250929050565b6000819050919050565b6106a981610696565b81146106b457600080fd5b50565b6000813590506106c6816106a0565b92915050565b6000602082840312156106e2576106e16104ce565b5b60006106f0848285016106b7565b91505092915050565b600073ffffffffffffffffffffffffffffffffffffffff82169050919050565b6000610724826106f9565b9050919050565b61073481610719565b82525050565b600081519050919050565b600082825260208201905092915050565b60005b83811015610774578082015181840152602081019050610759565b60008484015250505050565b600061078b8261073a565b6107958185610745565b93506107a5818560208601610756565b6107ae816104e2565b840191505092915050565b6107c281610696565b82525050565b600060a0820190506107dd600083018861072b565b81810360208301526107ef8187610780565b905081810360408301526108038186610780565b905061081260608301856107b9565b61081f60808301846107b9565b9695505050505050565b7f4e487b7100000000000000000000000000000000000000000000000000000000600052602260045260246000fd5b6000600282049050600182168061087057607f821691505b60208210810361088357610882610829565b5b50919050565b60008190508160005260206000209050919050565b60006020601f8301049050919050565b600082821b905092915050565b6000600883026108eb7fffffffffffffffffffffffffffffffffffffffffffffffffffffffffffffffff826108ae565b6108f586836108ae565b95508019841693508086168417925050509392505050565b6000819050919050565b600061093261092d61092884610696565b61090d565b610696565b9050919050565b6000819050919050565b61094c83610917565b61096061095882610939565b8484546108bb565b825550505050565b600090565b610975610968565b610980818484610943565b505050565b5b818110156109a45761099960008261096d565b600181019050610986565b5050565b601f8211156109e9576109ba81610889565b6109c38461089e565b810160208510156109d2578190505b6109e66109de8561089e565b830182610985565b50505b505050565b600082821c905092915050565b6000610a0c600019846008026109ee565b1980831691505092915050565b6000610a2583836109fb565b9150826002028217905092915050565b610a3e8261073a565b67ffffffffffffffff811115610a5757610a566104f3565b5b610a618254610858565b610a6c8282856109a8565b600060209050601f831160018114610a9f5760008415610a8d578287015190505b610a978582610a19565b865550610aff565b601f198416610aad86610889565b60005b82811015610ad557848901518255600182019150602085019450602081019050610ab0565b86831015610af25784890151610aee601f8916826109fb565b8355505b6001600288020188555050505b505050505050565b60006080820190508181036000830152610b218187610780565b90508181036020830152610b358186610780565b9050610b4460408301856107b9565b610b5160608301846107b9565b95945050505050565b600081905092915050565b50565b6000610b75600083610b5a565b9150610b8082610b65565b600082019050919050565b6000610b9682610b68565b915081905091905056fea26469706673582212207d1753ace4eeabeb76ba9394a7c0bf1c48709c05ab59543fd916c105e1513e5964736f6c63430008180033",
  "devdoc": {
    "kind": "dev",
    "methods": {
      "buyCoffee(string,string)": {
        "params": {
          "_message": "message from the purchaser",
          "_name": "name of the purchaser of coffee"
        }
      }
    },
    "version": 1
  },
  "userdoc": {
    "kind": "user",
    "methods": {
      "buyCoffee(string,string)": {
        "notice": "Buys coffee for the owner"
      },
      "withdraw()": {
        "notice": "Owner of the contract can withdraw all the funds"
      }
    },
    "version": 1
  },
  "storageLayout": {
    "storage": [
      {
        "astId": 34,
        "contract": "contracts/BuyCoffee.sol:BuyCoffee",
        "label": "s_memos",
        "offset": 0,
        "slot": "0",
        "type": "t_array(t_struct(Memo)16_storage)dyn_storage"
      }
    ],
    "types": {
      "t_address": {
        "encoding": "inplace",
        "label": "address",
        "numberOfBytes": "20"
      },
      "t_array(t_struct(Memo)16_storage)dyn_storage": {
        "base": "t_struct(Memo)16_storage",
        "encoding": "dynamic_array",
        "label": "struct BuyCoffee.Memo[]",
        "numberOfBytes": "32"
      },
      "t_string_storage": {
        "encoding": "bytes",
        "label": "string",
        "numberOfBytes": "32"
      },
      "t_struct(Memo)16_storage": {
        "encoding": "inplace",
        "label": "struct BuyCoffee.Memo",
        "members": [
          {
            "astId": 7,
            "contract": "contracts/BuyCoffee.sol:BuyCoffee",
            "label": "from",
            "offset": 0,
            "slot": "0",
            "type": "t_address"
          },
          {
            "astId": 9,
            "contract": "contracts/BuyCoffee.sol:BuyCoffee",
            "label": "name",
            "offset": 0,
            "slot": "1",
            "type": "t_string_storage"
          },
          {
            "astId": 11,
            "contract": "contracts/BuyCoffee.sol:BuyCoffee",
            "label": "message",
            "offset": 0,
            "slot": "2",
            "type": "t_string_storage"
          },
          {
            "astId": 13,
            "contract": "contracts/BuyCoffee.sol:BuyCoffee",
            "label": "amount",
            "offset": 0,
            "slot": "3",
            "type": "t_uint256"
          },
          {
            "astId": 15,
            "contract": "contracts/BuyCoffee.sol:BuyCoffee",
            "label": "timestamp",
            "offset": 0,
            "slot": "4",
            "type": "t_uint256"
          }
        ],
        "numberOfBytes": "160"
      },
      "t_uint256": {
        "encoding": "inplace",
        "label": "uint256",
        "numberOfBytes": "32"
      }
    }
  }
}